:020000040000FA
:060000006EEF03F0120098
:020006000000F8
:060008000FEF00F01200F2
:02000E001200DE
:08001800B0EF00F01200DACF96
:10002000E4FFE2CFDAFFE9CFE4FFEACFE4FFF6CF67
:10003000E4FFF7CFE4FFF5CFE4FFF3CFE4FFF4CF25
:10004000E4FFFACFE4FF00EE00F0140EE80403E34F
:10005000EECFE4FFFBD700EE14F0020EE80403E35A
:10006000EECFE4FFFBD7E6529D50010B55E09E50CA
:10007000010B52E09E90CF68100ECE6E00016BB166
:100080004BD06B81706B716B8B96010EE66E7CECC6
:1000900003F0E5528B868B9682A803D0020E0001F6
:1000A00071278B868B9682A802D00001712B8B86DC
:1000B0008B9682A802D0800E71D88B868B9682A8F0
:1000C00002D0400E6BD88B868B9682A802D0200E71
:1000D00065D88B868B9682A802D0100E5FD88B864F
:1000E0008B9682A802D0080E59D88B868B9682A850
:1000F00002D0040E53D88B868B9682A802D0020EB3
:100100004DD88B868B9682A804D00001702B000EF0
:1001100071238B868B968B86E55200EE15F0020ECE
:10012000E80403E3E5CFEDFFFBD700EE13F0140E78
:10013000E80403E3E5CFEDFFFBD7E5CFFAFFE5CF1A
:10014000F4FFE5CFF3FFE5CFF5FFE5CFF7FFE5CF10
:10015000F6FFE5CFEAFFE5CFE9FFE5CFDAFF1100D3
:10016000D8CFE4FFE0CFE4FFE46EDACFE4FFE6525D
:10017000F250200B0AE0F250040B07E0F294060E56
:10018000D66E0001902B000E9123E552E5CFDAFFE9
:10019000E550E5CFE0FFE5CFD8FF10000001702764
:0601A000000E71231200A5
:0A01A600D38CD38AD388D392D39070
:1001B000D3A4FED77E6A7F6A806A816A826A926A65
:1001C000936AF30E946E896A8A6A8B6AD30EE66E1E
:1001D0002CEC03F0E552CD0EE66EEDEC02F0E552AC
:1001E0009F80F194D08EF28CF28E8B9412000001DD
:1001F000616B6C6B6D6B6E6B6F6B706B716B6B931C
:100200001200D1DFF4DF02D809D9FDD700016BA1BC
:1002100012000F0E615D10E26151E96EEA6AD8903A
:10022000E936EA36720EE926000EEA2270C0EEFFC9
:1002300071C0EDFF612BF0D0616B7451721901E058
:10024000EBD07551731901E0E7D07651741901E0D4
:10025000E3D07751751901E0DFD07851761901E0CC
:10026000DBD07951771901E0D7D07A51781901E0C4
:10027000D3D07B51791901E0CFD07C517A1901E0BC
:10028000CBD07D517B1901E0C7D07E517C1901E0B4
:10029000C3D07F517D1901E0BFD080517E1901E0AC
:1002A000BBD081517F1901E0B7D08251801901E0A4
:1002B000B3D08351811901E0AFD08451821901E09C
:1002C000ABD08551831901E0A7D08651841901E094
:1002D000A3D08751851901E09FD08851861901E08C
:1002E0009BD08951871901E097D08A51881901E084
:1002F00093D08B51891901E08FD08C518A1901E07C
:100300008BD08D518B1901E087D08E518C1901E073
:1003100083D08F518D1901E07FD070C06CF071C017
:100320006DF06E516C1902E16F516D1975E06CC082
:100330006EF06DC06FF0040E086E096A6CC00DF0AF
:100340006DC00EF00EEC03F006C06CF007C06DF04F
:100350000A0E0D6E0E6A06C008F007C009F048ECE0
:1003600003F008C06CF009C06DF000018F0ED8805A
:100370000854010E095402E26C6B6D6BC70ECCD8A9
:1003800004E2C80ECED88A9E01D08A8E630EC4D8ED
:1003900004E2640EC6D88A9C01D08A8C4F0EBCD869
:1003A00004E2500EBED88A9A01D08A8A270EB4D8A9
:1003B00004E2280EB6D88A9801D08A88130EACD8E9
:1003C00004E2140EAED88A9601D08A86090EA4D80B
:1003D00004E20A0EA6D88A9401D08A84070E9CD81B
:1003E00004E2080E9ED88A9201D08A82030E94D825
:1003F00004E2040E96D88A9001D08A80010E8CD82F
:1004000004E2020E8ED8899E01D0898E000E84D817
:1004100002E2899C01D0898C6B91120000016E511F
:100420006F1102E1899001D0898082A003D090BF32
:1004300008D009D082A203D090AD05D002D091A3FC
:1004400002D0899A1200898A12006FD8A66AFE0E1D
:10045000DB50A96EA680A8506DD067D8020EE126A9
:10046000FE0EDBCFE6FFF1DFE552DE6EDD6ADECFAA
:1004700014F0DDCF15F014C015F0146A14C0DEFFBF
:1004800015C0DDFFFE0EDB28E66EDFDFE552DE265F
:10049000000EDD22DECF14F0DDCF15F014C0F3FF27
:1004A00015C0F4FF020EE15C02E2E16AE552E16E82
:1004B00041D03BD8E652F250DF6EF29EF29CA66A23
:1004C000A684FE0EDB50A96EFD0EDB50A86E550E05
:1004D000A76EAA0EA76EA682A1A8FED7A694DF508B
:1004E000F26EE55227D021D8FD0EDBCF15F015C0F6
:1004F00014F0156A1450E66EFE0EDBCFE6FFD9DF6E
:10050000E552E552FC0EDBCFE6FFFE0EDB28E66E81
:10051000D0DFE552E5520ED0D8806C55000E6D55F7
:1005200012006C5F000E6D5B1200D9CFE6FFE1CFC9
:0C053000D9FF1200E552E7CFD9FF1200FE
:04053C00060EF66E43
:10054000000EF76E000EF86E00010900F550976F6F
:100550000900F550986F03E1976701D03DD009007D
:10056000F550926F0900F550936F0900F550946FA4
:1005700009000900F550E96E0900F550EA6E09001E
:1005800009000900F550956F0900F550966F0900B4
:100590000900F6CF99F0F7CF9AF0F8CF9BF092C010
:1005A000F6FF93C0F7FF94C0F8FF0001955302E1F6
:1005B000965307E00900F550EE6E9507F8E29607AE
:1005C000F9D799C0F6FF9AC0F7FF9BC0F8FF00016A
:0A05D0009707000E985BBFD71200DA
:0605DA00D9CFE6FFDACFE5
:1005E000E6FFE1CFD9FFE2CFDAFFFD0EDB507E0B55
:1005F000CD6EFD0EDBAC02D0CD8E01D0CD9ECF6A8C
:10060000CE6A9E90DBAE02D09D8001D09D90CD80C1
:0C061000E552E5CFDAFFE7CFD9FF12007A
:04061C0008C012F010
:1006200008500D02F4CF07F0F3CF06F009500E0288
:10063000F4CF09F0F3CF08F00D02F3500726F45081
:100640000822E86A092212500E02F3500726F450DD
:080650000822E86A0922000CEF
:08065800D9CFE6FFDACFE6FF7F
:10066000E1CFD9FFE2CFDAFFFD0EDB507F0BD56E75
:10067000D76AD66AF294FD0EDBAE02D0F28A01D0C0
:10068000F29AD58EE552E5CFDAFFE7CFD9FF120017
:10069000056A046A100EE76ED890083609360436EB
:1006A00005360D50045C0E50055805E30D50045EF0
:0C06B0000E50055A082AE72EF0D7120061
:0406BC00000EF36ECB
:1006C00000EE00F0020E01D81200EA6002D0EE6ADD
:0C06D000FCD7F350E9601200EE6AFCD782
:0406DC0011EE00F02B
:1006E00021EE00F0F86A019C9EEC02F007EC00F0AD
:0806F00001EC01F0FBD7120040
:0806F800FF0EE350E84E120072
:0E070000000000D000D000D0E82EFAD7120082
:020000040030CA
:0100010008F6
:010002001AE3
:010003001EDE
:010005008179
:010006008178
:00000001FF
